{
  "_format": "hh-sol-artifact-1",
  "contractName": "NFTMarketplace",
  "sourceName": "contracts/NFTMarketplace.sol",
  "abi": [
    {
      "inputs": [],
      "stateMutability": "nonpayable",
      "type": "constructor"
    },
    {
      "anonymous": false,
      "inputs": [
        {
          "indexed": true,
          "internalType": "address",
          "name": "owner",
          "type": "address"
        },
        {
          "indexed": true,
          "internalType": "address",
          "name": "approved",
          "type": "address"
        },
        {
          "indexed": true,
          "internalType": "uint256",
          "name": "tokenId",
          "type": "uint256"
        }
      ],
      "name": "Approval",
      "type": "event"
    },
    {
      "anonymous": false,
      "inputs": [
        {
          "indexed": true,
          "internalType": "address",
          "name": "owner",
          "type": "address"
        },
        {
          "indexed": true,
          "internalType": "address",
          "name": "operator",
          "type": "address"
        },
        {
          "indexed": false,
          "internalType": "bool",
          "name": "approved",
          "type": "bool"
        }
      ],
      "name": "ApprovalForAll",
      "type": "event"
    },
    {
      "anonymous": false,
      "inputs": [
        {
          "indexed": true,
          "internalType": "uint256",
          "name": "tokenId",
          "type": "uint256"
        },
        {
          "indexed": false,
          "internalType": "address",
          "name": "seller",
          "type": "address"
        },
        {
          "indexed": false,
          "internalType": "address",
          "name": "owner",
          "type": "address"
        },
        {
          "indexed": false,
          "internalType": "uint256",
          "name": "price",
          "type": "uint256"
        },
        {
          "indexed": false,
          "internalType": "bool",
          "name": "sold",
          "type": "bool"
        }
      ],
      "name": "MarketItemCreated",
      "type": "event"
    },
    {
      "anonymous": false,
      "inputs": [
        {
          "indexed": true,
          "internalType": "address",
          "name": "from",
          "type": "address"
        },
        {
          "indexed": true,
          "internalType": "address",
          "name": "to",
          "type": "address"
        },
        {
          "indexed": true,
          "internalType": "uint256",
          "name": "tokenId",
          "type": "uint256"
        }
      ],
      "name": "Transfer",
      "type": "event"
    },
    {
      "inputs": [
        {
          "internalType": "address",
          "name": "to",
          "type": "address"
        },
        {
          "internalType": "uint256",
          "name": "tokenId",
          "type": "uint256"
        }
      ],
      "name": "approve",
      "outputs": [],
      "stateMutability": "nonpayable",
      "type": "function"
    },
    {
      "inputs": [
        {
          "internalType": "address",
          "name": "owner",
          "type": "address"
        }
      ],
      "name": "balanceOf",
      "outputs": [
        {
          "internalType": "uint256",
          "name": "",
          "type": "uint256"
        }
      ],
      "stateMutability": "view",
      "type": "function"
    },
    {
      "inputs": [
        {
          "internalType": "uint256",
          "name": "tokenId",
          "type": "uint256"
        }
      ],
      "name": "createMarketSale",
      "outputs": [],
      "stateMutability": "payable",
      "type": "function"
    },
    {
      "inputs": [
        {
          "internalType": "string",
          "name": "tokenURI",
          "type": "string"
        },
        {
          "internalType": "uint256",
          "name": "price",
          "type": "uint256"
        }
      ],
      "name": "createToken",
      "outputs": [
        {
          "internalType": "uint256",
          "name": "",
          "type": "uint256"
        }
      ],
      "stateMutability": "payable",
      "type": "function"
    },
    {
      "inputs": [],
      "name": "fetchItemsListed",
      "outputs": [
        {
          "components": [
            {
              "internalType": "uint256",
              "name": "tokenId",
              "type": "uint256"
            },
            {
              "internalType": "address payable",
              "name": "seller",
              "type": "address"
            },
            {
              "internalType": "address payable",
              "name": "owner",
              "type": "address"
            },
            {
              "internalType": "uint256",
              "name": "price",
              "type": "uint256"
            },
            {
              "internalType": "bool",
              "name": "sold",
              "type": "bool"
            }
          ],
          "internalType": "struct NFTMarketplace.MarketItem[]",
          "name": "",
          "type": "tuple[]"
        }
      ],
      "stateMutability": "view",
      "type": "function"
    },
    {
      "inputs": [],
      "name": "fetchMarketItems",
      "outputs": [
        {
          "components": [
            {
              "internalType": "uint256",
              "name": "tokenId",
              "type": "uint256"
            },
            {
              "internalType": "address payable",
              "name": "seller",
              "type": "address"
            },
            {
              "internalType": "address payable",
              "name": "owner",
              "type": "address"
            },
            {
              "internalType": "uint256",
              "name": "price",
              "type": "uint256"
            },
            {
              "internalType": "bool",
              "name": "sold",
              "type": "bool"
            }
          ],
          "internalType": "struct NFTMarketplace.MarketItem[]",
          "name": "",
          "type": "tuple[]"
        }
      ],
      "stateMutability": "view",
      "type": "function"
    },
    {
      "inputs": [],
      "name": "fetchMyItems",
      "outputs": [
        {
          "components": [
            {
              "internalType": "uint256",
              "name": "tokenId",
              "type": "uint256"
            },
            {
              "internalType": "address payable",
              "name": "seller",
              "type": "address"
            },
            {
              "internalType": "address payable",
              "name": "owner",
              "type": "address"
            },
            {
              "internalType": "uint256",
              "name": "price",
              "type": "uint256"
            },
            {
              "internalType": "bool",
              "name": "sold",
              "type": "bool"
            }
          ],
          "internalType": "struct NFTMarketplace.MarketItem[]",
          "name": "",
          "type": "tuple[]"
        }
      ],
      "stateMutability": "view",
      "type": "function"
    },
    {
      "inputs": [
        {
          "internalType": "uint256",
          "name": "tokenId",
          "type": "uint256"
        }
      ],
      "name": "getApproved",
      "outputs": [
        {
          "internalType": "address",
          "name": "",
          "type": "address"
        }
      ],
      "stateMutability": "view",
      "type": "function"
    },
    {
      "inputs": [],
      "name": "getListingPrice",
      "outputs": [
        {
          "internalType": "uint256",
          "name": "",
          "type": "uint256"
        }
      ],
      "stateMutability": "view",
      "type": "function"
    },
    {
      "inputs": [],
      "name": "getOwnerCommissionPercentage",
      "outputs": [
        {
          "internalType": "uint256",
          "name": "",
          "type": "uint256"
        }
      ],
      "stateMutability": "view",
      "type": "function"
    },
    {
      "inputs": [
        {
          "internalType": "address",
          "name": "owner",
          "type": "address"
        },
        {
          "internalType": "address",
          "name": "operator",
          "type": "address"
        }
      ],
      "name": "isApprovedForAll",
      "outputs": [
        {
          "internalType": "bool",
          "name": "",
          "type": "bool"
        }
      ],
      "stateMutability": "view",
      "type": "function"
    },
    {
      "inputs": [],
      "name": "name",
      "outputs": [
        {
          "internalType": "string",
          "name": "",
          "type": "string"
        }
      ],
      "stateMutability": "view",
      "type": "function"
    },
    {
      "inputs": [
        {
          "internalType": "uint256",
          "name": "tokenId",
          "type": "uint256"
        }
      ],
      "name": "ownerOf",
      "outputs": [
        {
          "internalType": "address",
          "name": "",
          "type": "address"
        }
      ],
      "stateMutability": "view",
      "type": "function"
    },
    {
      "inputs": [
        {
          "internalType": "uint256",
          "name": "tokenId",
          "type": "uint256"
        },
        {
          "internalType": "uint256",
          "name": "price",
          "type": "uint256"
        }
      ],
      "name": "resellToken",
      "outputs": [],
      "stateMutability": "payable",
      "type": "function"
    },
    {
      "inputs": [
        {
          "internalType": "address",
          "name": "from",
          "type": "address"
        },
        {
          "internalType": "address",
          "name": "to",
          "type": "address"
        },
        {
          "internalType": "uint256",
          "name": "tokenId",
          "type": "uint256"
        }
      ],
      "name": "safeTransferFrom",
      "outputs": [],
      "stateMutability": "nonpayable",
      "type": "function"
    },
    {
      "inputs": [
        {
          "internalType": "address",
          "name": "from",
          "type": "address"
        },
        {
          "internalType": "address",
          "name": "to",
          "type": "address"
        },
        {
          "internalType": "uint256",
          "name": "tokenId",
          "type": "uint256"
        },
        {
          "internalType": "bytes",
          "name": "data",
          "type": "bytes"
        }
      ],
      "name": "safeTransferFrom",
      "outputs": [],
      "stateMutability": "nonpayable",
      "type": "function"
    },
    {
      "inputs": [
        {
          "internalType": "address",
          "name": "operator",
          "type": "address"
        },
        {
          "internalType": "bool",
          "name": "approved",
          "type": "bool"
        }
      ],
      "name": "setApprovalForAll",
      "outputs": [],
      "stateMutability": "nonpayable",
      "type": "function"
    },
    {
      "inputs": [
        {
          "internalType": "bytes4",
          "name": "interfaceId",
          "type": "bytes4"
        }
      ],
      "name": "supportsInterface",
      "outputs": [
        {
          "internalType": "bool",
          "name": "",
          "type": "bool"
        }
      ],
      "stateMutability": "view",
      "type": "function"
    },
    {
      "inputs": [],
      "name": "symbol",
      "outputs": [
        {
          "internalType": "string",
          "name": "",
          "type": "string"
        }
      ],
      "stateMutability": "view",
      "type": "function"
    },
    {
      "inputs": [
        {
          "internalType": "uint256",
          "name": "tokenId",
          "type": "uint256"
        }
      ],
      "name": "tokenURI",
      "outputs": [
        {
          "internalType": "string",
          "name": "",
          "type": "string"
        }
      ],
      "stateMutability": "view",
      "type": "function"
    },
    {
      "inputs": [
        {
          "internalType": "address",
          "name": "from",
          "type": "address"
        },
        {
          "internalType": "address",
          "name": "to",
          "type": "address"
        },
        {
          "internalType": "uint256",
          "name": "tokenId",
          "type": "uint256"
        }
      ],
      "name": "transferFrom",
      "outputs": [],
      "stateMutability": "nonpayable",
      "type": "function"
    },
    {
      "inputs": [
        {
          "internalType": "uint256",
          "name": "_listingPrice",
          "type": "uint256"
        }
      ],
      "name": "updateListingPrice",
      "outputs": [],
      "stateMutability": "payable",
      "type": "function"
    },
    {
      "inputs": [
        {
          "internalType": "uint256",
          "name": "_ownerCommissionPercentage",
          "type": "uint256"
        }
      ],
      "name": "updateOwnerCommissionPercentage",
      "outputs": [],
      "stateMutability": "payable",
      "type": "function"
    }
  ],
  "bytecode": "0x608060405266b1a2bc2ec50000600955600f600a55600a546103e862000026919062000149565b600b553480156200003657600080fd5b506040518060400160405280600981526020017f53776170325377617000000000000000000000000000000000000000000000008152506040518060400160405280600481526020017f53575357000000000000000000000000000000000000000000000000000000008152508160009081620000b49190620003f4565b508060019081620000c69190620003f4565b50505033600c60006101000a81548173ffffffffffffffffffffffffffffffffffffffff021916908373ffffffffffffffffffffffffffffffffffffffff160217905550620004db565b6000819050919050565b7f4e487b7100000000000000000000000000000000000000000000000000000000600052601160045260246000fd5b6000620001568262000110565b9150620001638362000110565b92508282039050818111156200017e576200017d6200011a565b5b92915050565b600081519050919050565b7f4e487b7100000000000000000000000000000000000000000000000000000000600052604160045260246000fd5b7f4e487b7100000000000000000000000000000000000000000000000000000000600052602260045260246000fd5b600060028204905060018216806200020657607f821691505b6020821081036200021c576200021b620001be565b5b50919050565b60008190508160005260206000209050919050565b60006020601f8301049050919050565b600082821b905092915050565b600060088302620002867fffffffffffffffffffffffffffffffffffffffffffffffffffffffffffffffff8262000247565b62000292868362000247565b95508019841693508086168417925050509392505050565b6000819050919050565b6000620002d5620002cf620002c98462000110565b620002aa565b62000110565b9050919050565b6000819050919050565b620002f183620002b4565b620003096200030082620002dc565b84845462000254565b825550505050565b600090565b6200032062000311565b6200032d818484620002e6565b505050565b5b8181101562000355576200034960008262000316565b60018101905062000333565b5050565b601f821115620003a4576200036e8162000222565b620003798462000237565b8101602085101562000389578190505b620003a1620003988562000237565b83018262000332565b50505b505050565b600082821c905092915050565b6000620003c960001984600802620003a9565b1980831691505092915050565b6000620003e48383620003b6565b9150826002028217905092915050565b620003ff8262000184565b67ffffffffffffffff8111156200041b576200041a6200018f565b5b620004278254620001ed565b6200043482828562000359565b600060209050601f8311600181146200046c576000841562000457578287015190505b620004638582620003d6565b865550620004d3565b601f1984166200047c8662000222565b60005b82811015620004a6578489015182556001820191506020850194506020810190506200047f565b86831015620004c65784890151620004c2601f891682620003b6565b8355505b6001600288020188555050505b505050505050565b61458e80620004eb6000396000f3fe6080604052600436106101405760003560e01c80636352211e116100b6578063b88d4fde1161006f578063b88d4fde14610447578063be9af53614610470578063c87b56dd1461048c578063e219fc75146104c9578063e985e9c5146104e5578063f060a4471461052257610140565b80636352211e1461032d57806370a082311461036a57806372b3b620146103a757806395d89b41146103d7578063a22cb46514610402578063ae677aa31461042b57610140565b806312e855851161010857806312e855851461023e57806315c9ae101461026957806323b872dd146102945780633ff7abca146102bd57806342842e0e146102d957806345f8fa801461030257610140565b806301ffc9a71461014557806306fdde0314610182578063081812fc146101ad578063095ea7b3146101ea5780630f08efe014610213575b600080fd5b34801561015157600080fd5b5061016c60048036038101906101679190612ddf565b61054d565b6040516101799190612e27565b60405180910390f35b34801561018e57600080fd5b5061019761062f565b6040516101a49190612ed2565b60405180910390f35b3480156101b957600080fd5b506101d460048036038101906101cf9190612f2a565b6106c1565b6040516101e19190612f98565b60405180910390f35b3480156101f657600080fd5b50610211600480360381019061020c9190612fdf565b610707565b005b34801561021f57600080fd5b5061022861081e565b6040516102359190613175565b60405180910390f35b34801561024a57600080fd5b50610253610a86565b60405161026091906131a6565b60405180910390f35b34801561027557600080fd5b5061027e610a90565b60405161028b9190613175565b60405180910390f35b3480156102a057600080fd5b506102bb60048036038101906102b691906131c1565b610d7c565b005b6102d760048036038101906102d29190612f2a565b610ddc565b005b3480156102e557600080fd5b5061030060048036038101906102fb91906131c1565b610e76565b005b34801561030e57600080fd5b50610317610e96565b6040516103249190613175565b60405180910390f35b34801561033957600080fd5b50610354600480360381019061034f9190612f2a565b611182565b6040516103619190612f98565b60405180910390f35b34801561037657600080fd5b50610391600480360381019061038c9190613214565b611208565b60405161039e91906131a6565b60405180910390f35b6103c160048036038101906103bc9190613376565b6112bf565b6040516103ce91906131a6565b60405180910390f35b3480156103e357600080fd5b506103ec611301565b6040516103f99190612ed2565b60405180910390f35b34801561040e57600080fd5b50610429600480360381019061042491906133fe565b611393565b005b61044560048036038101906104409190612f2a565b6113a9565b005b34801561045357600080fd5b5061046e600480360381019061046991906134df565b611443565b005b61048a60048036038101906104859190612f2a565b6114a5565b005b34801561049857600080fd5b506104b360048036038101906104ae9190612f2a565b61175c565b6040516104c09190612ed2565b60405180910390f35b6104e360048036038101906104de9190613562565b61186e565b005b3480156104f157600080fd5b5061050c600480360381019061050791906135a2565b611a63565b6040516105199190612e27565b60405180910390f35b34801561052e57600080fd5b50610537611af7565b60405161054491906131a6565b60405180910390f35b60007f80ac58cd000000000000000000000000000000000000000000000000000000007bffffffffffffffffffffffffffffffffffffffffffffffffffffffff1916827bffffffffffffffffffffffffffffffffffffffffffffffffffffffff1916148061061857507f5b5e139f000000000000000000000000000000000000000000000000000000007bffffffffffffffffffffffffffffffffffffffffffffffffffffffff1916827bffffffffffffffffffffffffffffffffffffffffffffffffffffffff1916145b80610628575061062782611b01565b5b9050919050565b60606000805461063e90613611565b80601f016020809104026020016040519081016040528092919081815260200182805461066a90613611565b80156106b75780601f1061068c576101008083540402835291602001916106b7565b820191906000526020600020905b81548152906001019060200180831161069a57829003601f168201915b5050505050905090565b60006106cc82611b6b565b6004600083815260200190815260200160002060009054906101000a900473ffffffffffffffffffffffffffffffffffffffff169050919050565b600061071282611182565b90508073ffffffffffffffffffffffffffffffffffffffff168373ffffffffffffffffffffffffffffffffffffffff1603610782576040517f08c379a0000000000000000000000000000000000000000000000000000000008152600401610779906136b4565b60405180910390fd5b8073ffffffffffffffffffffffffffffffffffffffff166107a1611bb6565b73ffffffffffffffffffffffffffffffffffffffff1614806107d057506107cf816107ca611bb6565b611a63565b5b61080f576040517f08c379a000000000000000000000000000000000000000000000000000000000815260040161080690613746565b60405180910390fd5b6108198383611bbe565b505050565b6060600061082c6007611c77565b9050600061083a6008611c77565b6108446007611c77565b61084e9190613795565b90506000808267ffffffffffffffff81111561086d5761086c61324b565b5b6040519080825280602002602001820160405280156108a657816020015b610893612d16565b81526020019060019003908161088b5790505b50905060005b84811015610a7b573073ffffffffffffffffffffffffffffffffffffffff16600d60006001846108dc91906137c9565b815260200190815260200160002060020160009054906101000a900473ffffffffffffffffffffffffffffffffffffffff1673ffffffffffffffffffffffffffffffffffffffff1603610a6857600060018261093891906137c9565b90506000600d60008381526020019081526020016000209050806040518060a0016040529081600082015481526020016001820160009054906101000a900473ffffffffffffffffffffffffffffffffffffffff1673ffffffffffffffffffffffffffffffffffffffff1673ffffffffffffffffffffffffffffffffffffffff1681526020016002820160009054906101000a900473ffffffffffffffffffffffffffffffffffffffff1673ffffffffffffffffffffffffffffffffffffffff1673ffffffffffffffffffffffffffffffffffffffff168152602001600382015481526020016004820160009054906101000a900460ff161515151581525050848681518110610a4b57610a4a6137fd565b5b6020026020010181905250600185610a6391906137c9565b945050505b8080610a739061382c565b9150506108ac565b508094505050505090565b6000600954905090565b60606000610a9e6007611c77565b905060008060005b83811015610b46573373ffffffffffffffffffffffffffffffffffffffff16600d6000600184610ad691906137c9565b815260200190815260200160002060020160009054906101000a900473ffffffffffffffffffffffffffffffffffffffff1673ffffffffffffffffffffffffffffffffffffffff1603610b3357600183610b3091906137c9565b92505b8080610b3e9061382c565b915050610aa6565b5060008267ffffffffffffffff811115610b6357610b6261324b565b5b604051908082528060200260200182016040528015610b9c57816020015b610b89612d16565b815260200190600190039081610b815790505b50905060005b84811015610d71573373ffffffffffffffffffffffffffffffffffffffff16600d6000600184610bd291906137c9565b815260200190815260200160002060020160009054906101000a900473ffffffffffffffffffffffffffffffffffffffff1673ffffffffffffffffffffffffffffffffffffffff1603610d5e576000600182610c2e91906137c9565b90506000600d60008381526020019081526020016000209050806040518060a0016040529081600082015481526020016001820160009054906101000a900473ffffffffffffffffffffffffffffffffffffffff1673ffffffffffffffffffffffffffffffffffffffff1673ffffffffffffffffffffffffffffffffffffffff1681526020016002820160009054906101000a900473ffffffffffffffffffffffffffffffffffffffff1673ffffffffffffffffffffffffffffffffffffffff1673ffffffffffffffffffffffffffffffffffffffff168152602001600382015481526020016004820160009054906101000a900460ff161515151581525050848681518110610d4157610d406137fd565b5b6020026020010181905250600185610d5991906137c9565b945050505b8080610d699061382c565b915050610ba2565b508094505050505090565b610d8d610d87611bb6565b82611c85565b610dcc576040517f08c379a0000000000000000000000000000000000000000000000000000000008152600401610dc3906138e6565b60405180910390fd5b610dd7838383611d1a565b505050565b3373ffffffffffffffffffffffffffffffffffffffff16600c60009054906101000a900473ffffffffffffffffffffffffffffffffffffffff1673ffffffffffffffffffffffffffffffffffffffff1614610e6c576040517f08c379a0000000000000000000000000000000000000000000000000000000008152600401610e6390613978565b60405180910390fd5b80600a8190555050565b610e9183838360405180602001604052806000815250611443565b505050565b60606000610ea46007611c77565b905060008060005b83811015610f4c573373ffffffffffffffffffffffffffffffffffffffff16600d6000600184610edc91906137c9565b815260200190815260200160002060010160009054906101000a900473ffffffffffffffffffffffffffffffffffffffff1673ffffffffffffffffffffffffffffffffffffffff1603610f3957600183610f3691906137c9565b92505b8080610f449061382c565b915050610eac565b5060008267ffffffffffffffff811115610f6957610f6861324b565b5b604051908082528060200260200182016040528015610fa257816020015b610f8f612d16565b815260200190600190039081610f875790505b50905060005b84811015611177573373ffffffffffffffffffffffffffffffffffffffff16600d6000600184610fd891906137c9565b815260200190815260200160002060010160009054906101000a900473ffffffffffffffffffffffffffffffffffffffff1673ffffffffffffffffffffffffffffffffffffffff160361116457600060018261103491906137c9565b90506000600d60008381526020019081526020016000209050806040518060a0016040529081600082015481526020016001820160009054906101000a900473ffffffffffffffffffffffffffffffffffffffff1673ffffffffffffffffffffffffffffffffffffffff1673ffffffffffffffffffffffffffffffffffffffff1681526020016002820160009054906101000a900473ffffffffffffffffffffffffffffffffffffffff1673ffffffffffffffffffffffffffffffffffffffff1673ffffffffffffffffffffffffffffffffffffffff168152602001600382015481526020016004820160009054906101000a900460ff161515151581525050848681518110611147576111466137fd565b5b602002602001018190525060018561115f91906137c9565b945050505b808061116f9061382c565b915050610fa8565b508094505050505090565b60008061118e83612013565b9050600073ffffffffffffffffffffffffffffffffffffffff168173ffffffffffffffffffffffffffffffffffffffff16036111ff576040517f08c379a00000000000000000000000000000000000000000000000000000000081526004016111f6906139e4565b60405180910390fd5b80915050919050565b60008073ffffffffffffffffffffffffffffffffffffffff168273ffffffffffffffffffffffffffffffffffffffff1603611278576040517f08c379a000000000000000000000000000000000000000000000000000000000815260040161126f90613a76565b60405180910390fd5b600360008373ffffffffffffffffffffffffffffffffffffffff1673ffffffffffffffffffffffffffffffffffffffff168152602001908152602001600020549050919050565b60006112cb6007612050565b60006112d76007611c77565b90506112e33382612066565b6112ed8185612283565b6112f781846122f0565b8091505092915050565b60606001805461131090613611565b80601f016020809104026020016040519081016040528092919081815260200182805461133c90613611565b80156113895780601f1061135e57610100808354040283529160200191611389565b820191906000526020600020905b81548152906001019060200180831161136c57829003601f168201915b5050505050905090565b6113a561139e611bb6565b83836124f3565b5050565b3373ffffffffffffffffffffffffffffffffffffffff16600c60009054906101000a900473ffffffffffffffffffffffffffffffffffffffff1673ffffffffffffffffffffffffffffffffffffffff1614611439576040517f08c379a000000000000000000000000000000000000000000000000000000000815260040161143090613978565b60405180910390fd5b8060098190555050565b61145461144e611bb6565b83611c85565b611493576040517f08c379a000000000000000000000000000000000000000000000000000000000815260040161148a906138e6565b60405180910390fd5b61149f8484848461265f565b50505050565b6000600d60008381526020019081526020016000206003015490506000600d600084815260200190815260200160002060010160009054906101000a900473ffffffffffffffffffffffffffffffffffffffff16905081341461153d576040517f08c379a000000000000000000000000000000000000000000000000000000000815260040161153490613b08565b60405180910390fd5b33600d600085815260200190815260200160002060020160006101000a81548173ffffffffffffffffffffffffffffffffffffffff021916908373ffffffffffffffffffffffffffffffffffffffff1602179055506001600d600085815260200190815260200160002060040160006101000a81548160ff0219169083151502179055506000600d600085815260200190815260200160002060010160006101000a81548173ffffffffffffffffffffffffffffffffffffffff021916908373ffffffffffffffffffffffffffffffffffffffff1602179055506116216008612050565b61162c303385611d1a565b600c60009054906101000a900473ffffffffffffffffffffffffffffffffffffffff1673ffffffffffffffffffffffffffffffffffffffff166108fc6009549081150290604051600060405180830381858888f19350505050158015611696573d6000803e3d6000fd5b50600c60009054906101000a900473ffffffffffffffffffffffffffffffffffffffff1673ffffffffffffffffffffffffffffffffffffffff166108fc6116dc346126bb565b9081150290604051600060405180830381858888f19350505050158015611707573d6000803e3d6000fd5b508073ffffffffffffffffffffffffffffffffffffffff166108fc61172b346126df565b9081150290604051600060405180830381858888f19350505050158015611756573d6000803e3d6000fd5b50505050565b606061176782611b6b565b600060066000848152602001908152602001600020805461178790613611565b80601f01602080910402602001604051908101604052809291908181526020018280546117b390613611565b80156118005780601f106117d557610100808354040283529160200191611800565b820191906000526020600020905b8154815290600101906020018083116117e357829003601f168201915b505050505090506000611811612703565b90506000815103611826578192505050611869565b60008251111561185b578082604051602001611843929190613b64565b60405160208183030381529060405292505050611869565b6118648461271a565b925050505b919050565b3373ffffffffffffffffffffffffffffffffffffffff16600d600084815260200190815260200160002060020160009054906101000a900473ffffffffffffffffffffffffffffffffffffffff1673ffffffffffffffffffffffffffffffffffffffff1614611912576040517f08c379a000000000000000000000000000000000000000000000000000000000815260040161190990613bfa565b60405180910390fd5b6009543414611956576040517f08c379a000000000000000000000000000000000000000000000000000000000815260040161194d90613c8c565b60405180910390fd5b6000600d600084815260200190815260200160002060040160006101000a81548160ff02191690831515021790555080600d60008481526020019081526020016000206003018190555033600d600084815260200190815260200160002060010160006101000a81548173ffffffffffffffffffffffffffffffffffffffff021916908373ffffffffffffffffffffffffffffffffffffffff16021790555030600d600084815260200190815260200160002060020160006101000a81548173ffffffffffffffffffffffffffffffffffffffff021916908373ffffffffffffffffffffffffffffffffffffffff160217905550611a546008612782565b611a5f333084611d1a565b5050565b6000600560008473ffffffffffffffffffffffffffffffffffffffff1673ffffffffffffffffffffffffffffffffffffffff16815260200190815260200160002060008373ffffffffffffffffffffffffffffffffffffffff1673ffffffffffffffffffffffffffffffffffffffff16815260200190815260200160002060009054906101000a900460ff16905092915050565b6000600a54905090565b60007f01ffc9a7000000000000000000000000000000000000000000000000000000007bffffffffffffffffffffffffffffffffffffffffffffffffffffffff1916827bffffffffffffffffffffffffffffffffffffffffffffffffffffffff1916149050919050565b611b74816127de565b611bb3576040517f08c379a0000000000000000000000000000000000000000000000000000000008152600401611baa906139e4565b60405180910390fd5b50565b600033905090565b816004600083815260200190815260200160002060006101000a81548173ffffffffffffffffffffffffffffffffffffffff021916908373ffffffffffffffffffffffffffffffffffffffff160217905550808273ffffffffffffffffffffffffffffffffffffffff16611c3183611182565b73ffffffffffffffffffffffffffffffffffffffff167f8c5be1e5ebec7d5bd14f71427d1e84f3dd0314c0f7b2291e5b200ac8c7c3b92560405160405180910390a45050565b600081600001549050919050565b600080611c9183611182565b90508073ffffffffffffffffffffffffffffffffffffffff168473ffffffffffffffffffffffffffffffffffffffff161480611cd35750611cd28185611a63565b5b80611d1157508373ffffffffffffffffffffffffffffffffffffffff16611cf9846106c1565b73ffffffffffffffffffffffffffffffffffffffff16145b91505092915050565b8273ffffffffffffffffffffffffffffffffffffffff16611d3a82611182565b73ffffffffffffffffffffffffffffffffffffffff1614611d90576040517f08c379a0000000000000000000000000000000000000000000000000000000008152600401611d8790613d1e565b60405180910390fd5b600073ffffffffffffffffffffffffffffffffffffffff168273ffffffffffffffffffffffffffffffffffffffff1603611dff576040517f08c379a0000000000000000000000000000000000000000000000000000000008152600401611df690613db0565b60405180910390fd5b611e0c838383600161281f565b8273ffffffffffffffffffffffffffffffffffffffff16611e2c82611182565b73ffffffffffffffffffffffffffffffffffffffff1614611e82576040517f08c379a0000000000000000000000000000000000000000000000000000000008152600401611e7990613d1e565b60405180910390fd5b6004600082815260200190815260200160002060006101000a81549073ffffffffffffffffffffffffffffffffffffffff02191690556001600360008573ffffffffffffffffffffffffffffffffffffffff1673ffffffffffffffffffffffffffffffffffffffff168152602001908152602001600020600082825403925050819055506001600360008473ffffffffffffffffffffffffffffffffffffffff1673ffffffffffffffffffffffffffffffffffffffff16815260200190815260200160002060008282540192505081905550816002600083815260200190815260200160002060006101000a81548173ffffffffffffffffffffffffffffffffffffffff021916908373ffffffffffffffffffffffffffffffffffffffff160217905550808273ffffffffffffffffffffffffffffffffffffffff168473ffffffffffffffffffffffffffffffffffffffff167fddf252ad1be2c89b69c2b068fc378daa952ba7f163c4a11628f55a4df523b3ef60405160405180910390a461200e8383836001612945565b505050565b60006002600083815260200190815260200160002060009054906101000a900473ffffffffffffffffffffffffffffffffffffffff169050919050565b6001816000016000828254019250508190555050565b600073ffffffffffffffffffffffffffffffffffffffff168273ffffffffffffffffffffffffffffffffffffffff16036120d5576040517f08c379a00000000000000000000000000000000000000000000000000000000081526004016120cc90613e1c565b60405180910390fd5b6120de816127de565b1561211e576040517f08c379a000000000000000000000000000000000000000000000000000000000815260040161211590613e88565b60405180910390fd5b61212c60008383600161281f565b612135816127de565b15612175576040517f08c379a000000000000000000000000000000000000000000000000000000000815260040161216c90613e88565b60405180910390fd5b6001600360008473ffffffffffffffffffffffffffffffffffffffff1673ffffffffffffffffffffffffffffffffffffffff16815260200190815260200160002060008282540192505081905550816002600083815260200190815260200160002060006101000a81548173ffffffffffffffffffffffffffffffffffffffff021916908373ffffffffffffffffffffffffffffffffffffffff160217905550808273ffffffffffffffffffffffffffffffffffffffff16600073ffffffffffffffffffffffffffffffffffffffff167fddf252ad1be2c89b69c2b068fc378daa952ba7f163c4a11628f55a4df523b3ef60405160405180910390a461227f600083836001612945565b5050565b61228c826127de565b6122cb576040517f08c379a00000000000000000000000000000000000000000000000000000000081526004016122c290613f1a565b60405180910390fd5b806006600084815260200190815260200160002090816122eb91906140e6565b505050565b60008111612333576040517f08c379a000000000000000000000000000000000000000000000000000000000815260040161232a90614204565b60405180910390fd5b6009543414612377576040517f08c379a000000000000000000000000000000000000000000000000000000000815260040161236e90613c8c565b60405180910390fd5b6040518060a001604052808381526020013373ffffffffffffffffffffffffffffffffffffffff1681526020013073ffffffffffffffffffffffffffffffffffffffff16815260200182815260200160001515815250600d60008481526020019081526020016000206000820151816000015560208201518160010160006101000a81548173ffffffffffffffffffffffffffffffffffffffff021916908373ffffffffffffffffffffffffffffffffffffffff16021790555060408201518160020160006101000a81548173ffffffffffffffffffffffffffffffffffffffff021916908373ffffffffffffffffffffffffffffffffffffffff1602179055506060820151816003015560808201518160040160006101000a81548160ff0219169083151502179055509050506124b0333084611d1a565b817fb640004f1d14576d0c209e240cad0410e0d8c0c33a09375861fbadae2588a98d33308460006040516124e79493929190614224565b60405180910390a25050565b8173ffffffffffffffffffffffffffffffffffffffff168373ffffffffffffffffffffffffffffffffffffffff1603612561576040517f08c379a0000000000000000000000000000000000000000000000000000000008152600401612558906142b5565b60405180910390fd5b80600560008573ffffffffffffffffffffffffffffffffffffffff1673ffffffffffffffffffffffffffffffffffffffff16815260200190815260200160002060008473ffffffffffffffffffffffffffffffffffffffff1673ffffffffffffffffffffffffffffffffffffffff16815260200190815260200160002060006101000a81548160ff0219169083151502179055508173ffffffffffffffffffffffffffffffffffffffff168373ffffffffffffffffffffffffffffffffffffffff167f17307eab39ab6107e8899845ad3d59bd9653f200f220920489ca2b5937696c31836040516126529190612e27565b60405180910390a3505050565b61266a848484611d1a565b6126768484848461294b565b6126b5576040517f08c379a00000000000000000000000000000000000000000000000000000000081526004016126ac90614347565b60405180910390fd5b50505050565b6000600a546103e8836126ce9190614396565b6126d891906143c7565b9050919050565b6000600b546103e8836126f29190614396565b6126fc91906143c7565b9050919050565b606060405180602001604052806000815250905090565b606061272582611b6b565b600061272f612703565b9050600081511161274f576040518060200160405280600081525061277a565b8061275984612ad2565b60405160200161276a929190613b64565b6040516020818303038152906040525b915050919050565b600081600001549050600081116127ce576040517f08c379a00000000000000000000000000000000000000000000000000000000081526004016127c590614455565b60405180910390fd5b6001810382600001819055505050565b60008073ffffffffffffffffffffffffffffffffffffffff1661280083612013565b73ffffffffffffffffffffffffffffffffffffffff1614159050919050565b600181111561293f57600073ffffffffffffffffffffffffffffffffffffffff168473ffffffffffffffffffffffffffffffffffffffff16146128b35780600360008673ffffffffffffffffffffffffffffffffffffffff1673ffffffffffffffffffffffffffffffffffffffff16815260200190815260200160002060008282546128ab9190613795565b925050819055505b600073ffffffffffffffffffffffffffffffffffffffff168373ffffffffffffffffffffffffffffffffffffffff161461293e5780600360008573ffffffffffffffffffffffffffffffffffffffff1673ffffffffffffffffffffffffffffffffffffffff168152602001908152602001600020600082825461293691906137c9565b925050819055505b5b50505050565b50505050565b600061296c8473ffffffffffffffffffffffffffffffffffffffff16612ba0565b15612ac5578373ffffffffffffffffffffffffffffffffffffffff1663150b7a02612995611bb6565b8786866040518563ffffffff1660e01b81526004016129b794939291906144ca565b6020604051808303816000875af19250505080156129f357506040513d601f19601f820116820180604052508101906129f0919061452b565b60015b612a75573d8060008114612a23576040519150601f19603f3d011682016040523d82523d6000602084013e612a28565b606091505b506000815103612a6d576040517f08c379a0000000000000000000000000000000000000000000000000000000008152600401612a6490614347565b60405180910390fd5b805181602001fd5b63150b7a0260e01b7bffffffffffffffffffffffffffffffffffffffffffffffffffffffff1916817bffffffffffffffffffffffffffffffffffffffffffffffffffffffff191614915050612aca565b600190505b949350505050565b606060006001612ae184612bc3565b01905060008167ffffffffffffffff811115612b0057612aff61324b565b5b6040519080825280601f01601f191660200182016040528015612b325781602001600182028036833780820191505090505b509050600082602001820190505b600115612b95578080600190039150507f3031323334353637383961626364656600000000000000000000000000000000600a86061a8153600a8581612b8957612b88614367565b5b04945060008503612b40575b819350505050919050565b6000808273ffffffffffffffffffffffffffffffffffffffff163b119050919050565b600080600090507a184f03e93ff9f4daa797ed6e38ed64bf6a1f0100000000000000008310612c21577a184f03e93ff9f4daa797ed6e38ed64bf6a1f0100000000000000008381612c1757612c16614367565b5b0492506040810190505b6d04ee2d6d415b85acef81000000008310612c5e576d04ee2d6d415b85acef81000000008381612c5457612c53614367565b5b0492506020810190505b662386f26fc100008310612c8d57662386f26fc100008381612c8357612c82614367565b5b0492506010810190505b6305f5e1008310612cb6576305f5e1008381612cac57612cab614367565b5b0492506008810190505b6127108310612cdb576127108381612cd157612cd0614367565b5b0492506004810190505b60648310612cfe5760648381612cf457612cf3614367565b5b0492506002810190505b600a8310612d0d576001810190505b80915050919050565b6040518060a0016040528060008152602001600073ffffffffffffffffffffffffffffffffffffffff168152602001600073ffffffffffffffffffffffffffffffffffffffff168152602001600081526020016000151581525090565b6000604051905090565b600080fd5b600080fd5b60007fffffffff0000000000000000000000000000000000000000000000000000000082169050919050565b612dbc81612d87565b8114612dc757600080fd5b50565b600081359050612dd981612db3565b92915050565b600060208284031215612df557612df4612d7d565b5b6000612e0384828501612dca565b91505092915050565b60008115159050919050565b612e2181612e0c565b82525050565b6000602082019050612e3c6000830184612e18565b92915050565b600081519050919050565b600082825260208201905092915050565b60005b83811015612e7c578082015181840152602081019050612e61565b60008484015250505050565b6000601f19601f8301169050919050565b6000612ea482612e42565b612eae8185612e4d565b9350612ebe818560208601612e5e565b612ec781612e88565b840191505092915050565b60006020820190508181036000830152612eec8184612e99565b905092915050565b6000819050919050565b612f0781612ef4565b8114612f1257600080fd5b50565b600081359050612f2481612efe565b92915050565b600060208284031215612f4057612f3f612d7d565b5b6000612f4e84828501612f15565b91505092915050565b600073ffffffffffffffffffffffffffffffffffffffff82169050919050565b6000612f8282612f57565b9050919050565b612f9281612f77565b82525050565b6000602082019050612fad6000830184612f89565b92915050565b612fbc81612f77565b8114612fc757600080fd5b50565b600081359050612fd981612fb3565b92915050565b60008060408385031215612ff657612ff5612d7d565b5b600061300485828601612fca565b925050602061301585828601612f15565b9150509250929050565b600081519050919050565b600082825260208201905092915050565b6000819050602082019050919050565b61305481612ef4565b82525050565b600061306582612f57565b9050919050565b6130758161305a565b82525050565b61308481612e0c565b82525050565b60a0820160008201516130a0600085018261304b565b5060208201516130b3602085018261306c565b5060408201516130c6604085018261306c565b5060608201516130d9606085018261304b565b5060808201516130ec608085018261307b565b50505050565b60006130fe838361308a565b60a08301905092915050565b6000602082019050919050565b60006131228261301f565b61312c818561302a565b93506131378361303b565b8060005b8381101561316857815161314f88826130f2565b975061315a8361310a565b92505060018101905061313b565b5085935050505092915050565b6000602082019050818103600083015261318f8184613117565b905092915050565b6131a081612ef4565b82525050565b60006020820190506131bb6000830184613197565b92915050565b6000806000606084860312156131da576131d9612d7d565b5b60006131e886828701612fca565b93505060206131f986828701612fca565b925050604061320a86828701612f15565b9150509250925092565b60006020828403121561322a57613229612d7d565b5b600061323884828501612fca565b91505092915050565b600080fd5b600080fd5b7f4e487b7100000000000000000000000000000000000000000000000000000000600052604160045260246000fd5b61328382612e88565b810181811067ffffffffffffffff821117156132a2576132a161324b565b5b80604052505050565b60006132b5612d73565b90506132c1828261327a565b919050565b600067ffffffffffffffff8211156132e1576132e061324b565b5b6132ea82612e88565b9050602081019050919050565b82818337600083830152505050565b6000613319613314846132c6565b6132ab565b90508281526020810184848401111561333557613334613246565b5b6133408482856132f7565b509392505050565b600082601f83011261335d5761335c613241565b5b813561336d848260208601613306565b91505092915050565b6000806040838503121561338d5761338c612d7d565b5b600083013567ffffffffffffffff8111156133ab576133aa612d82565b5b6133b785828601613348565b92505060206133c885828601612f15565b9150509250929050565b6133db81612e0c565b81146133e657600080fd5b50565b6000813590506133f8816133d2565b92915050565b6000806040838503121561341557613414612d7d565b5b600061342385828601612fca565b9250506020613434858286016133e9565b9150509250929050565b600067ffffffffffffffff8211156134595761345861324b565b5b61346282612e88565b9050602081019050919050565b600061348261347d8461343e565b6132ab565b90508281526020810184848401111561349e5761349d613246565b5b6134a98482856132f7565b509392505050565b600082601f8301126134c6576134c5613241565b5b81356134d684826020860161346f565b91505092915050565b600080600080608085870312156134f9576134f8612d7d565b5b600061350787828801612fca565b945050602061351887828801612fca565b935050604061352987828801612f15565b925050606085013567ffffffffffffffff81111561354a57613549612d82565b5b613556878288016134b1565b91505092959194509250565b6000806040838503121561357957613578612d7d565b5b600061358785828601612f15565b925050602061359885828601612f15565b9150509250929050565b600080604083850312156135b9576135b8612d7d565b5b60006135c785828601612fca565b92505060206135d885828601612fca565b9150509250929050565b7f4e487b7100000000000000000000000000000000000000000000000000000000600052602260045260246000fd5b6000600282049050600182168061362957607f821691505b60208210810361363c5761363b6135e2565b5b50919050565b7f4552433732313a20617070726f76616c20746f2063757272656e74206f776e6560008201527f7200000000000000000000000000000000000000000000000000000000000000602082015250565b600061369e602183612e4d565b91506136a982613642565b604082019050919050565b600060208201905081810360008301526136cd81613691565b9050919050565b7f4552433732313a20617070726f76652063616c6c6572206973206e6f7420746f60008201527f6b656e206f776e6572206f7220617070726f76656420666f7220616c6c000000602082015250565b6000613730603d83612e4d565b915061373b826136d4565b604082019050919050565b6000602082019050818103600083015261375f81613723565b9050919050565b7f4e487b7100000000000000000000000000000000000000000000000000000000600052601160045260246000fd5b60006137a082612ef4565b91506137ab83612ef4565b92508282039050818111156137c3576137c2613766565b5b92915050565b60006137d482612ef4565b91506137df83612ef4565b92508282019050808211156137f7576137f6613766565b5b92915050565b7f4e487b7100000000000000000000000000000000000000000000000000000000600052603260045260246000fd5b600061383782612ef4565b91507fffffffffffffffffffffffffffffffffffffffffffffffffffffffffffffffff820361386957613868613766565b5b600182019050919050565b7f4552433732313a2063616c6c6572206973206e6f7420746f6b656e206f776e6560008201527f72206f7220617070726f76656400000000000000000000000000000000000000602082015250565b60006138d0602d83612e4d565b91506138db82613874565b604082019050919050565b600060208201905081810360008301526138ff816138c3565b9050919050565b7f4f6e6c79206d61726b6574706c616365206f776e65722063616e20757064617460008201527f6520746865206c697374696e6720707269636500000000000000000000000000602082015250565b6000613962603383612e4d565b915061396d82613906565b604082019050919050565b6000602082019050818103600083015261399181613955565b9050919050565b7f4552433732313a20696e76616c696420746f6b656e2049440000000000000000600082015250565b60006139ce601883612e4d565b91506139d982613998565b602082019050919050565b600060208201905081810360008301526139fd816139c1565b9050919050565b7f4552433732313a2061646472657373207a65726f206973206e6f74206120766160008201527f6c6964206f776e65720000000000000000000000000000000000000000000000602082015250565b6000613a60602983612e4d565b9150613a6b82613a04565b604082019050919050565b60006020820190508181036000830152613a8f81613a53565b9050919050565b7f506c65617365207375626d6974207468652061736b696e67207072696365207460008201527f6f20636f6d706c65746520746865207075726368617365000000000000000000602082015250565b6000613af2603783612e4d565b9150613afd82613a96565b604082019050919050565b60006020820190508181036000830152613b2181613ae5565b9050919050565b600081905092915050565b6000613b3e82612e42565b613b488185613b28565b9350613b58818560208601612e5e565b80840191505092915050565b6000613b708285613b33565b9150613b7c8284613b33565b91508190509392505050565b7f4f6e6c79204974656d204f776e65722063616e20706572666f726d207468697360008201527f206f7065726174696f6e00000000000000000000000000000000000000000000602082015250565b6000613be4602a83612e4d565b9150613bef82613b88565b604082019050919050565b60006020820190508181036000830152613c1381613bd7565b9050919050565b7f5072696365206d75737420626520657175616c20746f206c697374696e67207060008201527f7269636500000000000000000000000000000000000000000000000000000000602082015250565b6000613c76602483612e4d565b9150613c8182613c1a565b604082019050919050565b60006020820190508181036000830152613ca581613c69565b9050919050565b7f4552433732313a207472616e736665722066726f6d20696e636f72726563742060008201527f6f776e6572000000000000000000000000000000000000000000000000000000602082015250565b6000613d08602583612e4d565b9150613d1382613cac565b604082019050919050565b60006020820190508181036000830152613d3781613cfb565b9050919050565b7f4552433732313a207472616e7366657220746f20746865207a65726f2061646460008201527f7265737300000000000000000000000000000000000000000000000000000000602082015250565b6000613d9a602483612e4d565b9150613da582613d3e565b604082019050919050565b60006020820190508181036000830152613dc981613d8d565b9050919050565b7f4552433732313a206d696e7420746f20746865207a65726f2061646472657373600082015250565b6000613e06602083612e4d565b9150613e1182613dd0565b602082019050919050565b60006020820190508181036000830152613e3581613df9565b9050919050565b7f4552433732313a20746f6b656e20616c7265616479206d696e74656400000000600082015250565b6000613e72601c83612e4d565b9150613e7d82613e3c565b602082019050919050565b60006020820190508181036000830152613ea181613e65565b9050919050565b7f45524337323155524953746f726167653a2055524920736574206f66206e6f6e60008201527f6578697374656e7420746f6b656e000000000000000000000000000000000000602082015250565b6000613f04602e83612e4d565b9150613f0f82613ea8565b604082019050919050565b60006020820190508181036000830152613f3381613ef7565b9050919050565b60008190508160005260206000209050919050565b60006020601f8301049050919050565b600082821b905092915050565b600060088302613f9c7fffffffffffffffffffffffffffffffffffffffffffffffffffffffffffffffff82613f5f565b613fa68683613f5f565b95508019841693508086168417925050509392505050565b6000819050919050565b6000613fe3613fde613fd984612ef4565b613fbe565b612ef4565b9050919050565b6000819050919050565b613ffd83613fc8565b61401161400982613fea565b848454613f6c565b825550505050565b600090565b614026614019565b614031818484613ff4565b505050565b5b818110156140555761404a60008261401e565b600181019050614037565b5050565b601f82111561409a5761406b81613f3a565b61407484613f4f565b81016020851015614083578190505b61409761408f85613f4f565b830182614036565b50505b505050565b600082821c905092915050565b60006140bd6000198460080261409f565b1980831691505092915050565b60006140d683836140ac565b9150826002028217905092915050565b6140ef82612e42565b67ffffffffffffffff8111156141085761410761324b565b5b6141128254613611565b61411d828285614059565b600060209050601f831160018114614150576000841561413e578287015190505b61414885826140ca565b8655506141b0565b601f19841661415e86613f3a565b60005b8281101561418657848901518255600182019150602085019450602081019050614161565b868310156141a3578489015161419f601f8916826140ac565b8355505b6001600288020188555050505b505050505050565b7f5072696365206d757374206265206174206c6561737420310000000000000000600082015250565b60006141ee601883612e4d565b91506141f9826141b8565b602082019050919050565b6000602082019050818103600083015261421d816141e1565b9050919050565b60006080820190506142396000830187612f89565b6142466020830186612f89565b6142536040830185613197565b6142606060830184612e18565b95945050505050565b7f4552433732313a20617070726f766520746f2063616c6c657200000000000000600082015250565b600061429f601983612e4d565b91506142aa82614269565b602082019050919050565b600060208201905081810360008301526142ce81614292565b9050919050565b7f4552433732313a207472616e7366657220746f206e6f6e20455243373231526560008201527f63656976657220696d706c656d656e7465720000000000000000000000000000602082015250565b6000614331603283612e4d565b915061433c826142d5565b604082019050919050565b6000602082019050818103600083015261436081614324565b9050919050565b7f4e487b7100000000000000000000000000000000000000000000000000000000600052601260045260246000fd5b60006143a182612ef4565b91506143ac83612ef4565b9250826143bc576143bb614367565b5b828204905092915050565b60006143d282612ef4565b91506143dd83612ef4565b92508282026143eb81612ef4565b9150828204841483151761440257614401613766565b5b5092915050565b7f436f756e7465723a2064656372656d656e74206f766572666c6f770000000000600082015250565b600061443f601b83612e4d565b915061444a82614409565b602082019050919050565b6000602082019050818103600083015261446e81614432565b9050919050565b600081519050919050565b600082825260208201905092915050565b600061449c82614475565b6144a68185614480565b93506144b6818560208601612e5e565b6144bf81612e88565b840191505092915050565b60006080820190506144df6000830187612f89565b6144ec6020830186612f89565b6144f96040830185613197565b818103606083015261450b8184614491565b905095945050505050565b60008151905061452581612db3565b92915050565b60006020828403121561454157614540612d7d565b5b600061454f84828501614516565b9150509291505056fea2646970667358221220dff0b28d9eae02af6136b5d6ccdc13e3b7650b6450a3d8f6d8d132d680d6989a64736f6c63430008110033",
  "linkReferences": {},
  "deployedLinkReferences": {}
}